:100000000C942A000C948C000C948C000C948C00A2
:100010000C948C000C948C000C948C000C948C0030
:100020000C948C000C948C000C948C000C948C0020
:100030000C948C000C948C000C948C000C948C0010
:100040000C948C000C948C000C948C000C948C0000
:100050000C948C0011241FBECFE5D8E0DEBFCDBFCD
:0C0060000E9436000C946500F894FFCF5D
:10006C0081B3836081BB87B38C7F87BB26B386B398
:10007C008270922F917020FF05C0882319F00E9486
:10008C00770013C0911105C0811103C00E9470004C
:10009C000CC0992329F0811103C00E947E0005C079
:1000AC00911103C081110E9485002FEF80E792E02F
:0E00BC00215080409040E1F700C00000D7CFF7
:1000CA00EC010E9491000E949000CE010E949200D1
:0600DA00CE010E948E0021
:0E00E00082B38E7F82BB82B38D7F82BB089578
:0E00EE0082B3816082BB82B3826082BB0895C0
:0E00FC0082B38D7F82BB82B3816082BB089588
:0E010A0082B38E7F82BB82B3826082BB089577
:040118000C94000043
:04011C000E94340009
:02012000089540
:0201220008953E
:0201240008953C
:00000001FF
